:10000000ABC00000C7C00000C5C00000C3C00000F6
:10001000C1C00000BFC00000BDC00000BBC00000E8
:10002000B9C00000B7C000006FC40000ADC400003C
:10003000B1C00000AFC00000ADC00000ABC0000008
:10004000A9C00000A7C00000A5C00000A3C0000018
:10005000A1C000009FC000009DC000009BC0000028
:1000600099C000000C948E080C945F0893C00000A7
:1000700091C000008FC000008DC000008BC0000048
:1000800089C0000087C0000085C0000083C0000058
:1000900081C000007FC0000000010000CF001200FE
:1000A000020000E1002200220000030115002100EF
:1000B00000F3000900030000180104010309041CF7
:1000C000011402030904320120000001C1260012BC
:1000D00001000200000020C01679040001010200A6
:1000E0000109022200010100C032090400000103DD
:1000F00000000009211101000122150007058303FA
:100100002000010631FF0974A1537508150026FF70
:1001100000952009758102C00403090414035900E5
:100120006F007500720020004E0061006D006500D8
:100130000000200359006F00750072002000550078
:10014000530042002000440065007600690063000F
:1001500065000000796F0A0011241FBECFEFD0E2C6
:10016000DEBFCDBF11E0A0E0B1E0E6E5F2E100E0E6
:100170000BBF02C007900D92A030B107D9F711E074
:10018000A0E0B1E001C01D92AF36B107E1F70FD09A
:100190000C94290935CFFC019B01861797072CF099
:1001A0009A01E417F5070CF49F01C90108952F92F5
:1001B0003F924F925F926F927F928F929F92AF92F7
:1001C000BF92CF92DF92EF92FF920F931F93DF9334
:1001D000CF93CDB7DEB7C65CD0400FB6F894DEBF84
:1001E0000FBECDBF80E880936100109261003FD5C3
:1001F0002ED360E072EC81E090E001D780E197E2DD
:1002000020E931E0F9013197F1F70197D9F784E559
:1002100091E019D522E0C22ED12CCC0EDD1EC601F4
:10022000B3D090E1E92EF12CEC0EFD1EC701ACD04D
:100230008E01025E1F4FC8016AE070E040E050E0AE
:1002400020E030E091D0AE01445D5F4F8BE1DA01F8
:100250001D928A95E9F7DEAECDAEFCAEEBAEFE01A7
:10026000FF9611830083CE01895B9F4FFC011192A1
:100270001192119211922CE7DF011D922A95E9F754
:100280001982AA24BB2465014C011E010894211C7B
:10029000311C2A0180EA682E8FE0782EC401B1015A
:1002A00047D6882319F4C401B201EDD0C601B501C7
:1002B00023E030E040E050E08FD779018A01C801A7
:1002C000B70166507F4F8F4F9F4F28EE33E040E0DD
:1002D00050E082D79B01AC0128513C4F80E0B9012E
:1002E000F1D4C801B7016C507E4F8F4F9F4F28EE5D
:1002F00033E040E050E070D79B01AC0128513C4F07
:1003000081E0B901DFD4C801B70162517D4F8F4F41
:100310009F4F28EE33E040E050E05ED79B01AC01F8
:1003200028513C4F82E0B901CDD4C801B70128EE75
:1003300033E040E050E050D79B01AC0128513C4FE6
:1003400083E0B901BFD40894A11CB11CC11CD11C0D
:10035000C3010197F1F7A2CFFC017183608353833E
:100360004283358324830895FC0171836083538322
:100370004283358324830895FC0111821082138205
:100380001282158214820895FC0111821082138258
:100390001282158214820895AF92BF92CF92DF929B
:1003A000EF92FF920F931F936C015A01A61AB70A9E
:1003B000C501AA2797FDA095BA2FF60120853185A2
:1003C00042855385280F391F4A1F5B1FD601189697
:1003D0002D933D934D935C931B971C968D919C910F
:1003E0001D97FB01E81BF90B1D967C936E931C97E0
:1003F00014968D919C911597E89F7001E99FF00CE0
:10040000F89FF00C11240027F7FC0095102F12968E
:100410006D917C911397882777FD8095982FA9D6A9
:1004200028E030E040E050E0F9D6E20EF31E041F71
:10043000151FF601808191819C01A29EC001A39E9F
:10044000900DB29E900D1124AA2797FDA095BA2F6A
:10045000E80EF91E0A1F1B1FC801B70120E034E097
:1004600040E050E0DBD6C9011F910F91FF90EF9063
:10047000DF90CF90BF90AF900895FC011086118659
:10048000128613860895AF92BF92CF92DF92EF92B9
:10049000FF920F931F93DF93CF93CDB7DEB7C8546E
:1004A000D0400FB6F894DEBF0FBECDBFDC018B018C
:1004B00012968C911297813009F0BEC013968C91E0
:1004C0001397813009F0B1C1CD0105963AD4DE0110
:1004D000AF5BBF4F2C93FE01EE5BFF4F3083FE01FD
:1004E000ED5BFF4F4083FE01EC5BFF4F5083FE014D
:1004F000EB5BFF4F6083FE01EA5BFF4F7083FE0101
:10050000E95BFF4F8083FE01E85BFF4F90839E0114
:100510002F5F3F4FFD0188E00190D9010D929D01B1
:100520008150D1F7EF81F885ED80FE80AB80BC80F3
:10053000C980DA80C6018C5D954CD80157962D9103
:100540003C915897880F991F880F991FB90130D691
:1005500064527A4FD80119967C936E9318978CED5C
:1005600095E08A199B09880F991F880F991FB90177
:100570001FD664527A4FD80117967C936E931697C4
:10058000C7018C5D954C59966D917C915A97880F57
:10059000991F880F991F0CD664527A4FD80115966F
:1005A0007C936E9314971396FC93EE9312971B967D
:1005B0001C921E921A978C91853011F483E08C93D3
:1005C000F801828193818C5494400CF02EC1D801A3
:1005D0001F968D919C91509750DFF80181899289E7
:1005E0004CDFD80153968D919C91549746DFBDE620
:1005F000EB16B7E0FB0640F0F8018081813009F08E
:100600000FC183E080830CC1FCE4EF16F4E0FF0629
:1006100008F00BC1D8011C9281D3BDE6CB16B7E020
:10062000DB0608F402C1ECE4AE16E4E0BE0608F016
:10063000FCC081E0D80127C0833009F0F6C01396D2
:100640008C911397803709F47DC0813758F4883531
:1006500081F0893508F0E9C08823C1F0843209F0BF
:10066000E4C0D6C0823709F4C1C08A3709F0DDC0C2
:1006700004C0FB01108252D3D8C0DB018C918823C7
:1006800009F0D3C081E01C968C93CFC09E012D5DF4
:100690003F4F8EE1F90111928A95E9F714964C913A
:1006A00014974695CD010596B90193D3D80151967B
:1006B000ED91FC9152978BA19CA1918380838DA198
:1006C0009EA1938382838FA198A5958384831F968F
:1006D000ED91FC91509789A59AA5918380838BA574
:1006E0009CA5938382838DA59EA595838483539631
:1006F000ED91FC9154978FA598A99183808389A946
:100700009AA9938382838BA99CA9958384838DA9BD
:100710009EA958969C938E9357978FA998AD5A96F9
:100720009C938E93599789AD55968C9355978BAD25
:1007300056968C9356978C91882309F076C08CE05E
:1007400090E069C09E01275F3F4F8AE1F901119255
:100750008A95E9F7DB015196ED91FC9152978081E2
:1007600091819A878987828193819C878B878481F5
:1007700095819E878D871F96ED91FC915097808182
:100780009181988B8F87828193819A8B898B8481C9
:1007900095819C8B8B8B5396ED91FC915497808126
:1007A00091819E8B8D8B82819381988F8F8B848199
:1007B00095819A8F898F57968D919C9158979C8F90
:1007C0008B8F59968D919C915A979E8F8D8F5596B0
:1007D0008C9155978F8F18A256968C9189A31AA247
:1007E00083E061E0A9012AE161D31FC0FB018081A0
:1007F000882321F48AE090E09687858790E0D801ED
:1008000011968C91882309F491E0F80191830DC031
:1008100084E690E0DB011E969C938E931D9705C0A5
:10082000F801808181608083EFCEC85BDF4F0FB617
:10083000F894DEBF0FBECDBFCF91DF911F910F9116
:10084000FF90EF90DF90CF90BF90AF90089581E838
:100850008093D70080EA8093D80086E189BD09B4EF
:1008600000FEFDCF80E98093D8001092E000109246
:1008700000018CE08093E20078940895482F8091E5
:100880000001882309F43EC02FB7F89483E08093D9
:10089000E90080910201882341F08091E80085FD04
:1008A00002C02FBF12C0109202019091E4009C5F21
:1008B00033E08091E80085FD13C02FBF8091E400F4
:1008C000891729F481E0809302018FEF08958091C8
:1008D00000018823B9F02FB7F8943093E900E9CFED
:1008E0004093F1008091E80085FD06C08AE3809383
:1008F000E8001092010103C082E0809301012FBF44
:1009000080E008958FEF08951F920F920FB60F9217
:1009100011248F939F938091E1001092E100982F12
:1009200083FF0FC01092E90081E08093EB001092EA
:10093000EC0082E28093ED0088E08093F00010925A
:10094000000192FF1AC0809100018823B1F08091CC
:100950000101882391F0815080930101882369F47B
:1009600083E08093E90002C01092F1008091E800DA
:1009700085FDFACF8AE38093E8009F918F910F90D5
:100980000FBE0F901F9018951F920F920FB60F92E7
:100990000BB60F9211242F933F934F935F936F9356
:1009A0007F938F939F93AF93BF93CF93DF93EF93F7
:1009B000FF931092E9008091E80083FF2CC14091E1
:1009C000F1003091F1008091F100A82FB0E020916A
:1009D000F100922F80E0A82BB92B8091F100682FB5
:1009E00070E02091F100922F80E0682B792B8091AC
:1009F000F100C82FD0E02091F100922F80E0C82BA9
:100A0000D92B82EF8093E800363009F056C02FE9E9
:100A100030E0A90145505040F901379785919491F4
:100A20008A179B07E1F4FA0185919491861797073D
:100A3000B1F49A012E5F3F4FF901659174912E5FD9
:100A40003F4FF9012491CE01CF3FD10519F010F0AD
:100A50008FEF90E0422F821758F4482F09C0295F8A
:100A60003F4F495F5F4FF0E0203D3F07A9F6D3C0FD
:100A70005EEF8091E800282F30E0C901857090700A
:100A8000892BB9F322FDCAC0342F413208F030E27D
:100A9000232FCB0106C0FC010196E491E093F10005
:100AA00021502223C1F7630F711D431B5093E800AF
:100AB0004423F9F63032E9F2B1C0353061F48EEFFB
:100AC0008093E8008091E80080FFFCCF8A2F806847
:100AD0008093E300A3C0393031F5442309F09BC073
:100AE000A09300018EEF8093E80089EC90E021E074
:100AF0002093E900FC010196E491E093EB00EE23E2
:100B000069F0AC014F5F5F4FFC0184918093EC0072
:100B1000CA010196FA0134913093ED002F5F253020
:100B200039F78EE14DC0383061F4403809F073C0B8
:100B30008091E80080FFFCCF809100018093F1005C
:100B40001BC03323E9F48091E80080FFFCCF4238DA
:100B500011F080E00DC06093E9008091EB0090E01F
:100B600025E0969587952A95E1F781701092E90026
:100B70008093F1001092F1008EEF8093E8004EC058
:100B8000313019F0333009F046C04230F1F4AB2B6C
:100B9000E1F4262F2F77822F81508430B0F48EEF2E
:100BA0008093E8002093E9003330A9F189E1809334
:100BB000EB0081E090E002C0880F991F2A95E2F7D0
:100BC0008093EA001092EA0029C0313021F5413AC1
:100BD00011F5672B01F54C2F5EEF8091E800282F6F
:100BE00030E0C90185709070892BB9F322FD16C0E1
:100BF000942F413208F090E2892F03C01092F10047
:100C000081508823D9F7491B5093E800442329F7E2
:100C1000903219F303C081E28093EB00FF91EF91D2
:100C2000DF91CF91BF91AF919F918F917F916F9104
:100C30005F914F913F912F910F900BBE0F900FBE80
:100C40000F901F9018951F93CF93DF93EC01FE0137
:100C500021961491112339F01A3011F48DE00EDE33
:100C6000812F0CDEF4CFDF91CF911F91089592EA8E
:100C7000909380008AE1809381009093900080930C
:100C8000910080E49CE99093870080938600909384
:100C9000970080939600259A269A3D9A3E9A88E975
:100CA00098E0909389008093880090938B008093C4
:100CB0008A00909399008093980090939B00809372
:100CC0009A00089560557B4F9EE0693D79071CF0BE
:100CD00068ED7EE006C098E06839790714F468E9A9
:100CE00078E0813061F0813028F0823069F0833023
:100CF000A1F40FC0709389006093880008957093E9
:100D00008B0060938A000895709399006093980017
:100D1000089570939B0060939A00089588E998E085
:100D2000909389008093880090938B0080938A0031
:100D3000909399008093980090939B0080939A00E1
:100D40000895DF93CF93CDB7DEB728970FB6F89409
:100D5000DEBF0FBECDBFDC0111969C91119780E0E4
:100D60002C9130E0282B392B13969C91139780E01F
:100D700012964C91129750E0482B592B15969C9146
:100D8000159780E014966C91149770E0682B792B7E
:100D90001796FC911797E0E016968C9190E08E2BB9
:100DA0009F2B98878F837E836D835C834B833A83ED
:100DB0002983EA81FC81AE813E2F5F2F7A2F9885AF
:100DC00028960FB6F894DEBF0FBECDBFCF91DF914E
:100DD0000895FC01DB0160E070E050E00BC0318160
:100DE00020E0808190E0822B932B8D939D936F5F09
:100DF0007F4F32966417750790F308950F931F93F2
:100E0000CF93DF93062FEC0110E003C0899122D12C
:100E10001F5F1017D8F3DF91CF911F910F910895A5
:100E2000DF92EF92FF920F931F93DF93CF93CDB793
:100E3000DEB727970FB6F894DEBF0FBECDBF182FD1
:100E4000062FF42EE52ED22E83E98B8380EE8C8341
:100E50001D836E832F83CE01039665E0CFDF8F2D38
:100E60009E2D6D2DCBDF010F402F410F2F2D3E2DDD
:100E7000C901FC0190E004C08191080F400F9F5F01
:100E80009D15D0F309834A83CE01019662E0B6DF57
:100E900027960FB6F894DEBF0FBECDBFCF91DF917E
:100EA0001F910F91FF90EF90DF9008950F931F9384
:100EB000DF93CF93CDB7DEB7C054D0400FB6F894D0
:100EC000DEBF0FBECDBF182F062F19821A821B82DC
:100ED0001C82FE0135968CE3DF011D928A95E9F7AD
:100EE000842F952FDC01FE01319630E0220F331F55
:100EF000AF01BF01620F731F09C08C9180838D9178
:100F00009D91892F990F990B81833296E617F707E8
:100F1000A1F7812F602F84DFC05CDF4F0FB6F894FC
:100F2000DEBF0FBECDBFCF91DF911F910F9108950E
:100F3000EF92FF920F931F93CF93DF93EC017B010E
:100F4000B3D0882309F453C0F70180818E01080FC4
:100F5000111D96D0F8018083F7014081442339F4B4
:100F60008881833909F440C0108282E041C0413059
:100F700039F48981803EC1F1F701108283E038C0E5
:100F8000443039F48C81813878F1F701108284E0A3
:100F90002FC0453048F15C81852F90E00696242FC4
:100FA00030E08217930704F58A819B81980F392FCF
:100FB000380FFE0120E004C08481980F390F2F5FA5
:100FC00031962517C8F3FE01E50FF11D85819817AD
:100FD00019F48681381721F0F701108285E008C0E6
:100FE000F701108280E004C04F5FF701408381E089
:100FF000DF91CF911F910F91FF90EF9008959B018A
:10100000AC01F89460E079E08DE390E0E5D0215008
:10101000304040405040569547953795279530933E
:10102000CD002093CC0082E08093C80088E98093B3
:10103000C90086E08093CA0010922C0180912C0197
:1010400080932B0110926E0180916E0180936D014F
:1010500078940895282F90912B019F5F983208F083
:1010600090E080912C018917E1F3E92FF0E0ED5F2A
:10107000FE4F208390932B0188EB8093C900089545
:1010800090916D0180916E019817D1F390916E014E
:101090009F5F903408F090E0E92FF0E0E35DFE4FB1
:1010A000808190936E01089580916D0190916E0101
:1010B000891710F0891B0895805C891B08951F9281
:1010C0000F920FB60F920BB60F9211248F939F932E
:1010D000EF93FF9390912B0180912C01981721F4AD
:1010E00088E98093C9000FC090912C019F5F9832CE
:1010F00008F090E0E92FF0E0ED5FFE4F80818093F3
:10110000CE0090932C01FF91EF919F918F910F90C2
:101110000BBE0F900FBE0F901F9018951F920F924D
:101120000FB60F920BB60F9211242F938F939F93AC
:10113000EF93FF932091CE0090916D019F5F9034CB
:1011400008F090E080916E01981739F0E92FF0E0F7
:10115000E35DFE4F208390936D01FF91EF919F918E
:101160008F912F910F900BBE0F900FBE0F901F907D
:101170001895629FD001739FF001829FE00DF11DD1
:10118000649FE00DF11D929FF00D839FF00D749F01
:10119000F00D659FF00D9927729FB00DE11DF91FAD
:1011A000639FB00DE11DF91FBD01CF01112408950A
:1011B000AA1BBB1B51E107C0AA1FBB1FA617B7077D
:1011C00010F0A61BB70B881F991F5A95A9F7809599
:1011D0009095BC01CD010895A1E21A2EAA1BBB1B5C
:1011E000FD010DC0AA1FBB1FEE1FFF1FA217B307F3
:1011F000E407F50720F0A21BB30BE40BF50B661F09
:10120000771F881F991F1A9469F7609570958095CC
:1012100090959B01AC01BD01CF01089597FB092E6C
:1012200005260ED057FD04D0D7DF0AD0001C38F4B5
:1012300050954095309521953F4F4F4F5F4F089502
:10124000F6F790958095709561957F4F8F4F9F4FE2
:061250000895F894FFCFA1
:00000001FF
